{
	"contracts/Enum.sol": {
		"Enum": {
			"abi": [
				{
					"inputs": [
						{
							"internalType": "enum Enum.ActionChoices",
							"name": "c",
							"type": "uint8"
						}
					],
					"name": "enumToUint",
					"outputs": [
						{
							"internalType": "uint256",
							"name": "",
							"type": "uint256"
						}
					],
					"stateMutability": "pure",
					"type": "function"
				},
				{
					"inputs": [],
					"name": "getChoice",
					"outputs": [
						{
							"internalType": "enum Enum.ActionChoices",
							"name": "",
							"type": "uint8"
						}
					],
					"stateMutability": "view",
					"type": "function"
				},
				{
					"inputs": [
						{
							"internalType": "uint256",
							"name": "i",
							"type": "uint256"
						}
					],
					"name": "uintToEnum",
					"outputs": [
						{
							"internalType": "enum Enum.ActionChoices",
							"name": "",
							"type": "uint8"
						}
					],
					"stateMutability": "pure",
					"type": "function"
				}
			],
			"devdoc": {
				"kind": "dev",
				"methods": {},
				"version": 1
			},
			"evm": {
				"assembly": "    /* \"contracts/Enum.sol\":65:754  contract Enum {... */\n  mstore(0x40, 0x80)\n    /* \"contracts/Enum.sol\":249:269  ActionChoices.GoDown */\n  0x03\n    /* \"contracts/Enum.sol\":226:269  ActionChoices choice = ActionChoices.GoDown */\n  0x00\n  dup1\n  0x0100\n  exp\n  dup2\n  sload\n  dup2\n  0xff\n  mul\n  not\n  and\n  swap1\n  dup4\n  0x03\n  dup2\n  gt\n  iszero\n  tag_1\n  jumpi\n  tag_2\n  tag_3\n  jump\t// in\ntag_2:\ntag_1:\n  mul\n  or\n  swap1\n  sstore\n  pop\n    /* \"contracts/Enum.sol\":65:754  contract Enum {... */\n  callvalue\n  dup1\n  iszero\n  tag_4\n  jumpi\n  0x00\n  dup1\n  revert\ntag_4:\n  pop\n  jump(tag_5)\n    /* \"#utility.yul\":7:187   */\ntag_3:\n    /* \"#utility.yul\":55:132   */\n  0x4e487b7100000000000000000000000000000000000000000000000000000000\n    /* \"#utility.yul\":52:53   */\n  0x00\n    /* \"#utility.yul\":45:133   */\n  mstore\n    /* \"#utility.yul\":152:156   */\n  0x21\n    /* \"#utility.yul\":149:150   */\n  0x04\n    /* \"#utility.yul\":142:157   */\n  mstore\n    /* \"#utility.yul\":176:180   */\n  0x24\n    /* \"#utility.yul\":173:174   */\n  0x00\n    /* \"#utility.yul\":166:181   */\n  revert\n    /* \"contracts/Enum.sol\":65:754  contract Enum {... */\ntag_5:\n  dataSize(sub_0)\n  dup1\n  dataOffset(sub_0)\n  0x00\n  codecopy\n  0x00\n  return\nstop\n\nsub_0: assembly {\n        /* \"contracts/Enum.sol\":65:754  contract Enum {... */\n      mstore(0x40, 0x80)\n      callvalue\n      dup1\n      iszero\n      tag_1\n      jumpi\n      0x00\n      dup1\n      revert\n    tag_1:\n      pop\n      jumpi(tag_2, lt(calldatasize, 0x04))\n      shr(0xe0, calldataload(0x00))\n      dup1\n      0x67cb61b6\n      eq\n      tag_3\n      jumpi\n      dup1\n      0x84c94d2e\n      eq\n      tag_4\n      jumpi\n      dup1\n      0xa79140b0\n      eq\n      tag_5\n      jumpi\n    tag_2:\n      0x00\n      dup1\n      revert\n        /* \"contracts/Enum.sol\":447:536  function getChoice() public view returns (ActionChoices) {... */\n    tag_3:\n      tag_6\n      tag_7\n      jump\t// in\n    tag_6:\n      mload(0x40)\n      tag_8\n      swap2\n      swap1\n      tag_9\n      jump\t// in\n    tag_8:\n      mload(0x40)\n      dup1\n      swap2\n      sub\n      swap1\n      return\n        /* \"contracts/Enum.sol\":646:751  function uintToEnum(uint i) public pure returns(ActionChoices) {... */\n    tag_4:\n      tag_10\n      0x04\n      dup1\n      calldatasize\n      sub\n      dup2\n      add\n      swap1\n      tag_11\n      swap2\n      swap1\n      tag_12\n      jump\t// in\n    tag_11:\n      tag_13\n      jump\t// in\n    tag_10:\n      mload(0x40)\n      tag_14\n      swap2\n      swap1\n      tag_9\n      jump\t// in\n    tag_14:\n      mload(0x40)\n      dup1\n      swap2\n      sub\n      swap1\n      return\n        /* \"contracts/Enum.sol\":544:640  function enumToUint(ActionChoices c) public pure returns(uint) {... */\n    tag_5:\n      tag_15\n      0x04\n      dup1\n      calldatasize\n      sub\n      dup2\n      add\n      swap1\n      tag_16\n      swap2\n      swap1\n      tag_17\n      jump\t// in\n    tag_16:\n      tag_18\n      jump\t// in\n    tag_15:\n      mload(0x40)\n      tag_19\n      swap2\n      swap1\n      tag_20\n      jump\t// in\n    tag_19:\n      mload(0x40)\n      dup1\n      swap2\n      sub\n      swap1\n      return\n        /* \"contracts/Enum.sol\":447:536  function getChoice() public view returns (ActionChoices) {... */\n    tag_7:\n        /* \"contracts/Enum.sol\":489:502  ActionChoices */\n      0x00\n        /* \"contracts/Enum.sol\":522:528  choice */\n      dup1\n      0x00\n      swap1\n      sload\n      swap1\n      0x0100\n      exp\n      swap1\n      div\n      0xff\n      and\n        /* \"contracts/Enum.sol\":515:528  return choice */\n      swap1\n      pop\n        /* \"contracts/Enum.sol\":447:536  function getChoice() public view returns (ActionChoices) {... */\n      swap1\n      jump\t// out\n        /* \"contracts/Enum.sol\":646:751  function uintToEnum(uint i) public pure returns(ActionChoices) {... */\n    tag_13:\n        /* \"contracts/Enum.sol\":694:707  ActionChoices */\n      0x00\n        /* \"contracts/Enum.sol\":741:742  i */\n      dup2\n        /* \"contracts/Enum.sol\":727:743  ActionChoices(i) */\n      0x03\n      dup2\n      gt\n      iszero\n      tag_23\n      jumpi\n      tag_24\n      tag_25\n      jump\t// in\n    tag_24:\n    tag_23:\n        /* \"contracts/Enum.sol\":720:743  return ActionChoices(i) */\n      swap1\n      pop\n        /* \"contracts/Enum.sol\":646:751  function uintToEnum(uint i) public pure returns(ActionChoices) {... */\n      swap2\n      swap1\n      pop\n      jump\t// out\n        /* \"contracts/Enum.sol\":544:640  function enumToUint(ActionChoices c) public pure returns(uint) {... */\n    tag_18:\n        /* \"contracts/Enum.sol\":601:605  uint */\n      0x00\n        /* \"contracts/Enum.sol\":630:631  c */\n      dup2\n        /* \"contracts/Enum.sol\":625:632  uint(c) */\n      0x03\n      dup2\n      gt\n      iszero\n      tag_27\n      jumpi\n      tag_28\n      tag_25\n      jump\t// in\n    tag_28:\n    tag_27:\n        /* \"contracts/Enum.sol\":618:632  return uint(c) */\n      swap1\n      pop\n        /* \"contracts/Enum.sol\":544:640  function enumToUint(ActionChoices c) public pure returns(uint) {... */\n      swap2\n      swap1\n      pop\n      jump\t// out\n        /* \"#utility.yul\":7:187   */\n    tag_25:\n        /* \"#utility.yul\":55:132   */\n      0x4e487b7100000000000000000000000000000000000000000000000000000000\n        /* \"#utility.yul\":52:53   */\n      0x00\n        /* \"#utility.yul\":45:133   */\n      mstore\n        /* \"#utility.yul\":152:156   */\n      0x21\n        /* \"#utility.yul\":149:150   */\n      0x04\n        /* \"#utility.yul\":142:157   */\n      mstore\n        /* \"#utility.yul\":176:180   */\n      0x24\n        /* \"#utility.yul\":173:174   */\n      0x00\n        /* \"#utility.yul\":166:181   */\n      revert\n        /* \"#utility.yul\":193:313   */\n    tag_29:\n        /* \"#utility.yul\":281:282   */\n      0x04\n        /* \"#utility.yul\":274:279   */\n      dup2\n        /* \"#utility.yul\":271:283   */\n      lt\n        /* \"#utility.yul\":261:307   */\n      tag_45\n      jumpi\n        /* \"#utility.yul\":287:305   */\n      tag_46\n      tag_25\n      jump\t// in\n    tag_46:\n        /* \"#utility.yul\":261:307   */\n    tag_45:\n        /* \"#utility.yul\":193:313   */\n      pop\n      jump\t// out\n        /* \"#utility.yul\":319:460   */\n    tag_30:\n        /* \"#utility.yul\":371:378   */\n      0x00\n        /* \"#utility.yul\":400:405   */\n      dup2\n        /* \"#utility.yul\":389:405   */\n      swap1\n      pop\n        /* \"#utility.yul\":406:454   */\n      tag_48\n        /* \"#utility.yul\":448:453   */\n      dup3\n        /* \"#utility.yul\":406:454   */\n      tag_29\n      jump\t// in\n    tag_48:\n        /* \"#utility.yul\":319:460   */\n      swap2\n      swap1\n      pop\n      jump\t// out\n        /* \"#utility.yul\":466:607   */\n    tag_31:\n        /* \"#utility.yul\":529:538   */\n      0x00\n        /* \"#utility.yul\":562:601   */\n      tag_50\n        /* \"#utility.yul\":595:600   */\n      dup3\n        /* \"#utility.yul\":562:601   */\n      tag_30\n      jump\t// in\n    tag_50:\n        /* \"#utility.yul\":549:601   */\n      swap1\n      pop\n        /* \"#utility.yul\":466:607   */\n      swap2\n      swap1\n      pop\n      jump\t// out\n        /* \"#utility.yul\":613:770   */\n    tag_32:\n        /* \"#utility.yul\":713:763   */\n      tag_52\n        /* \"#utility.yul\":757:762   */\n      dup2\n        /* \"#utility.yul\":713:763   */\n      tag_31\n      jump\t// in\n    tag_52:\n        /* \"#utility.yul\":708:711   */\n      dup3\n        /* \"#utility.yul\":701:764   */\n      mstore\n        /* \"#utility.yul\":613:770   */\n      pop\n      pop\n      jump\t// out\n        /* \"#utility.yul\":776:1024   */\n    tag_9:\n        /* \"#utility.yul\":882:886   */\n      0x00\n        /* \"#utility.yul\":920:922   */\n      0x20\n        /* \"#utility.yul\":909:918   */\n      dup3\n        /* \"#utility.yul\":905:923   */\n      add\n        /* \"#utility.yul\":897:923   */\n      swap1\n      pop\n        /* \"#utility.yul\":933:1017   */\n      tag_54\n        /* \"#utility.yul\":1014:1015   */\n      0x00\n        /* \"#utility.yul\":1003:1012   */\n      dup4\n        /* \"#utility.yul\":999:1016   */\n      add\n        /* \"#utility.yul\":990:996   */\n      dup5\n        /* \"#utility.yul\":933:1017   */\n      tag_32\n      jump\t// in\n    tag_54:\n        /* \"#utility.yul\":776:1024   */\n      swap3\n      swap2\n      pop\n      pop\n      jump\t// out\n        /* \"#utility.yul\":1111:1228   */\n    tag_34:\n        /* \"#utility.yul\":1220:1221   */\n      0x00\n        /* \"#utility.yul\":1217:1218   */\n      dup1\n        /* \"#utility.yul\":1210:1222   */\n      revert\n        /* \"#utility.yul\":1357:1434   */\n    tag_36:\n        /* \"#utility.yul\":1394:1401   */\n      0x00\n        /* \"#utility.yul\":1423:1428   */\n      dup2\n        /* \"#utility.yul\":1412:1428   */\n      swap1\n      pop\n        /* \"#utility.yul\":1357:1434   */\n      swap2\n      swap1\n      pop\n      jump\t// out\n        /* \"#utility.yul\":1440:1562   */\n    tag_37:\n        /* \"#utility.yul\":1513:1537   */\n      tag_60\n        /* \"#utility.yul\":1531:1536   */\n      dup2\n        /* \"#utility.yul\":1513:1537   */\n      tag_36\n      jump\t// in\n    tag_60:\n        /* \"#utility.yul\":1506:1511   */\n      dup2\n        /* \"#utility.yul\":1503:1538   */\n      eq\n        /* \"#utility.yul\":1493:1556   */\n      tag_61\n      jumpi\n        /* \"#utility.yul\":1552:1553   */\n      0x00\n        /* \"#utility.yul\":1549:1550   */\n      dup1\n        /* \"#utility.yul\":1542:1554   */\n      revert\n        /* \"#utility.yul\":1493:1556   */\n    tag_61:\n        /* \"#utility.yul\":1440:1562   */\n      pop\n      jump\t// out\n        /* \"#utility.yul\":1568:1707   */\n    tag_38:\n        /* \"#utility.yul\":1614:1619   */\n      0x00\n        /* \"#utility.yul\":1652:1658   */\n      dup2\n        /* \"#utility.yul\":1639:1659   */\n      calldataload\n        /* \"#utility.yul\":1630:1659   */\n      swap1\n      pop\n        /* \"#utility.yul\":1668:1701   */\n      tag_63\n        /* \"#utility.yul\":1695:1700   */\n      dup2\n        /* \"#utility.yul\":1668:1701   */\n      tag_37\n      jump\t// in\n    tag_63:\n        /* \"#utility.yul\":1568:1707   */\n      swap3\n      swap2\n      pop\n      pop\n      jump\t// out\n        /* \"#utility.yul\":1713:2042   */\n    tag_12:\n        /* \"#utility.yul\":1772:1778   */\n      0x00\n        /* \"#utility.yul\":1821:1823   */\n      0x20\n        /* \"#utility.yul\":1809:1818   */\n      dup3\n        /* \"#utility.yul\":1800:1807   */\n      dup5\n        /* \"#utility.yul\":1796:1819   */\n      sub\n        /* \"#utility.yul\":1792:1824   */\n      slt\n        /* \"#utility.yul\":1789:1908   */\n      iszero\n      tag_65\n      jumpi\n        /* \"#utility.yul\":1827:1906   */\n      tag_66\n      tag_34\n      jump\t// in\n    tag_66:\n        /* \"#utility.yul\":1789:1908   */\n    tag_65:\n        /* \"#utility.yul\":1947:1948   */\n      0x00\n        /* \"#utility.yul\":1972:2025   */\n      tag_67\n        /* \"#utility.yul\":2017:2024   */\n      dup5\n        /* \"#utility.yul\":2008:2014   */\n      dup3\n        /* \"#utility.yul\":1997:2006   */\n      dup6\n        /* \"#utility.yul\":1993:2015   */\n      add\n        /* \"#utility.yul\":1972:2025   */\n      tag_38\n      jump\t// in\n    tag_67:\n        /* \"#utility.yul\":1962:2025   */\n      swap2\n      pop\n        /* \"#utility.yul\":1918:2035   */\n      pop\n        /* \"#utility.yul\":1713:2042   */\n      swap3\n      swap2\n      pop\n      pop\n      jump\t// out\n        /* \"#utility.yul\":2048:2162   */\n    tag_39:\n        /* \"#utility.yul\":2136:2137   */\n      0x04\n        /* \"#utility.yul\":2129:2134   */\n      dup2\n        /* \"#utility.yul\":2126:2138   */\n      lt\n        /* \"#utility.yul\":2116:2156   */\n      tag_69\n      jumpi\n        /* \"#utility.yul\":2152:2153   */\n      0x00\n        /* \"#utility.yul\":2149:2150   */\n      dup1\n        /* \"#utility.yul\":2142:2154   */\n      revert\n        /* \"#utility.yul\":2116:2156   */\n    tag_69:\n        /* \"#utility.yul\":2048:2162   */\n      pop\n      jump\t// out\n        /* \"#utility.yul\":2168:2337   */\n    tag_40:\n        /* \"#utility.yul\":2229:2234   */\n      0x00\n        /* \"#utility.yul\":2267:2273   */\n      dup2\n        /* \"#utility.yul\":2254:2274   */\n      calldataload\n        /* \"#utility.yul\":2245:2274   */\n      swap1\n      pop\n        /* \"#utility.yul\":2283:2331   */\n      tag_71\n        /* \"#utility.yul\":2325:2330   */\n      dup2\n        /* \"#utility.yul\":2283:2331   */\n      tag_39\n      jump\t// in\n    tag_71:\n        /* \"#utility.yul\":2168:2337   */\n      swap3\n      swap2\n      pop\n      pop\n      jump\t// out\n        /* \"#utility.yul\":2343:2702   */\n    tag_17:\n        /* \"#utility.yul\":2417:2423   */\n      0x00\n        /* \"#utility.yul\":2466:2468   */\n      0x20\n        /* \"#utility.yul\":2454:2463   */\n      dup3\n        /* \"#utility.yul\":2445:2452   */\n      dup5\n        /* \"#utility.yul\":2441:2464   */\n      sub\n        /* \"#utility.yul\":2437:2469   */\n      slt\n        /* \"#utility.yul\":2434:2553   */\n      iszero\n      tag_73\n      jumpi\n        /* \"#utility.yul\":2472:2551   */\n      tag_74\n      tag_34\n      jump\t// in\n    tag_74:\n        /* \"#utility.yul\":2434:2553   */\n    tag_73:\n        /* \"#utility.yul\":2592:2593   */\n      0x00\n        /* \"#utility.yul\":2617:2685   */\n      tag_75\n        /* \"#utility.yul\":2677:2684   */\n      dup5\n        /* \"#utility.yul\":2668:2674   */\n      dup3\n        /* \"#utility.yul\":2657:2666   */\n      dup6\n        /* \"#utility.yul\":2653:2675   */\n      add\n        /* \"#utility.yul\":2617:2685   */\n      tag_40\n      jump\t// in\n    tag_75:\n        /* \"#utility.yul\":2607:2685   */\n      swap2\n      pop\n        /* \"#utility.yul\":2563:2695   */\n      pop\n        /* \"#utility.yul\":2343:2702   */\n      swap3\n      swap2\n      pop\n      pop\n      jump\t// out\n        /* \"#utility.yul\":2708:2826   */\n    tag_41:\n        /* \"#utility.yul\":2795:2819   */\n      tag_77\n        /* \"#utility.yul\":2813:2818   */\n      dup2\n        /* \"#utility.yul\":2795:2819   */\n      tag_36\n      jump\t// in\n    tag_77:\n        /* \"#utility.yul\":2790:2793   */\n      dup3\n        /* \"#utility.yul\":2783:2820   */\n      mstore\n        /* \"#utility.yul\":2708:2826   */\n      pop\n      pop\n      jump\t// out\n        /* \"#utility.yul\":2832:3054   */\n    tag_20:\n        /* \"#utility.yul\":2925:2929   */\n      0x00\n        /* \"#utility.yul\":2963:2965   */\n      0x20\n        /* \"#utility.yul\":2952:2961   */\n      dup3\n        /* \"#utility.yul\":2948:2966   */\n      add\n        /* \"#utility.yul\":2940:2966   */\n      swap1\n      pop\n        /* \"#utility.yul\":2976:3047   */\n      tag_79\n        /* \"#utility.yul\":3044:3045   */\n      0x00\n        /* \"#utility.yul\":3033:3042   */\n      dup4\n        /* \"#utility.yul\":3029:3046   */\n      add\n        /* \"#utility.yul\":3020:3026   */\n      dup5\n        /* \"#utility.yul\":2976:3047   */\n      tag_41\n      jump\t// in\n    tag_79:\n        /* \"#utility.yul\":2832:3054   */\n      swap3\n      swap2\n      pop\n      pop\n      jump\t// out\n\n    auxdata: 0xa264697066735822122006f34616b0677d2156cc5d934b1b7c07c08b819fb425b15d202a8eb02387b2f264736f6c634300081a0033\n}\n",
				"bytecode": {
					"linkReferences": {},
					"object": "608060405260035f806101000a81548160ff0219169083600381111560255760246039565b5b02179055503480156034575f80fd5b506066565b7f4e487b71000000000000000000000000000000000000000000000000000000005f52602160045260245ffd5b6102a5806100735f395ff3fe608060405234801561000f575f80fd5b506004361061003f575f3560e01c806367cb61b61461004357806384c94d2e14610061578063a79140b014610091575b5f80fd5b61004b6100c1565b604051610058919061017e565b60405180910390f35b61007b600480360381019061007691906101ce565b6100d5565b604051610088919061017e565b60405180910390f35b6100ab60048036038101906100a6919061021c565b6100f0565b6040516100b89190610256565b60405180910390f35b5f805f9054906101000a900460ff16905090565b5f8160038111156100e9576100e861010b565b5b9050919050565b5f8160038111156101045761010361010b565b5b9050919050565b7f4e487b71000000000000000000000000000000000000000000000000000000005f52602160045260245ffd5b600481106101495761014861010b565b5b50565b5f81905061015982610138565b919050565b5f6101688261014c565b9050919050565b6101788161015e565b82525050565b5f6020820190506101915f83018461016f565b92915050565b5f80fd5b5f819050919050565b6101ad8161019b565b81146101b7575f80fd5b50565b5f813590506101c8816101a4565b92915050565b5f602082840312156101e3576101e2610197565b5b5f6101f0848285016101ba565b91505092915050565b60048110610205575f80fd5b50565b5f81359050610216816101f9565b92915050565b5f6020828403121561023157610230610197565b5b5f61023e84828501610208565b91505092915050565b6102508161019b565b82525050565b5f6020820190506102695f830184610247565b9291505056fea264697066735822122006f34616b0677d2156cc5d934b1b7c07c08b819fb425b15d202a8eb02387b2f264736f6c634300081a0033",
					"opcodes": "PUSH1 0x80 PUSH1 0x40 MSTORE PUSH1 0x3 PUSH0 DUP1 PUSH2 0x100 EXP DUP2 SLOAD DUP2 PUSH1 0xFF MUL NOT AND SWAP1 DUP4 PUSH1 0x3 DUP2 GT ISZERO PUSH1 0x25 JUMPI PUSH1 0x24 PUSH1 0x39 JUMP JUMPDEST JUMPDEST MUL OR SWAP1 SSTORE POP CALLVALUE DUP1 ISZERO PUSH1 0x34 JUMPI PUSH0 DUP1 REVERT JUMPDEST POP PUSH1 0x66 JUMP JUMPDEST PUSH32 0x4E487B7100000000000000000000000000000000000000000000000000000000 PUSH0 MSTORE PUSH1 0x21 PUSH1 0x4 MSTORE PUSH1 0x24 PUSH0 REVERT JUMPDEST PUSH2 0x2A5 DUP1 PUSH2 0x73 PUSH0 CODECOPY PUSH0 RETURN INVALID PUSH1 0x80 PUSH1 0x40 MSTORE CALLVALUE DUP1 ISZERO PUSH2 0xF JUMPI PUSH0 DUP1 REVERT JUMPDEST POP PUSH1 0x4 CALLDATASIZE LT PUSH2 0x3F JUMPI PUSH0 CALLDATALOAD PUSH1 0xE0 SHR DUP1 PUSH4 0x67CB61B6 EQ PUSH2 0x43 JUMPI DUP1 PUSH4 0x84C94D2E EQ PUSH2 0x61 JUMPI DUP1 PUSH4 0xA79140B0 EQ PUSH2 0x91 JUMPI JUMPDEST PUSH0 DUP1 REVERT JUMPDEST PUSH2 0x4B PUSH2 0xC1 JUMP JUMPDEST PUSH1 0x40 MLOAD PUSH2 0x58 SWAP2 SWAP1 PUSH2 0x17E JUMP JUMPDEST PUSH1 0x40 MLOAD DUP1 SWAP2 SUB SWAP1 RETURN JUMPDEST PUSH2 0x7B PUSH1 0x4 DUP1 CALLDATASIZE SUB DUP2 ADD SWAP1 PUSH2 0x76 SWAP2 SWAP1 PUSH2 0x1CE JUMP JUMPDEST PUSH2 0xD5 JUMP JUMPDEST PUSH1 0x40 MLOAD PUSH2 0x88 SWAP2 SWAP1 PUSH2 0x17E JUMP JUMPDEST PUSH1 0x40 MLOAD DUP1 SWAP2 SUB SWAP1 RETURN JUMPDEST PUSH2 0xAB PUSH1 0x4 DUP1 CALLDATASIZE SUB DUP2 ADD SWAP1 PUSH2 0xA6 SWAP2 SWAP1 PUSH2 0x21C JUMP JUMPDEST PUSH2 0xF0 JUMP JUMPDEST PUSH1 0x40 MLOAD PUSH2 0xB8 SWAP2 SWAP1 PUSH2 0x256 JUMP JUMPDEST PUSH1 0x40 MLOAD DUP1 SWAP2 SUB SWAP1 RETURN JUMPDEST PUSH0 DUP1 PUSH0 SWAP1 SLOAD SWAP1 PUSH2 0x100 EXP SWAP1 DIV PUSH1 0xFF AND SWAP1 POP SWAP1 JUMP JUMPDEST PUSH0 DUP2 PUSH1 0x3 DUP2 GT ISZERO PUSH2 0xE9 JUMPI PUSH2 0xE8 PUSH2 0x10B JUMP JUMPDEST JUMPDEST SWAP1 POP SWAP2 SWAP1 POP JUMP JUMPDEST PUSH0 DUP2 PUSH1 0x3 DUP2 GT ISZERO PUSH2 0x104 JUMPI PUSH2 0x103 PUSH2 0x10B JUMP JUMPDEST JUMPDEST SWAP1 POP SWAP2 SWAP1 POP JUMP JUMPDEST PUSH32 0x4E487B7100000000000000000000000000000000000000000000000000000000 PUSH0 MSTORE PUSH1 0x21 PUSH1 0x4 MSTORE PUSH1 0x24 PUSH0 REVERT JUMPDEST PUSH1 0x4 DUP2 LT PUSH2 0x149 JUMPI PUSH2 0x148 PUSH2 0x10B JUMP JUMPDEST JUMPDEST POP JUMP JUMPDEST PUSH0 DUP2 SWAP1 POP PUSH2 0x159 DUP3 PUSH2 0x138 JUMP JUMPDEST SWAP2 SWAP1 POP JUMP JUMPDEST PUSH0 PUSH2 0x168 DUP3 PUSH2 0x14C JUMP JUMPDEST SWAP1 POP SWAP2 SWAP1 POP JUMP JUMPDEST PUSH2 0x178 DUP2 PUSH2 0x15E JUMP JUMPDEST DUP3 MSTORE POP POP JUMP JUMPDEST PUSH0 PUSH1 0x20 DUP3 ADD SWAP1 POP PUSH2 0x191 PUSH0 DUP4 ADD DUP5 PUSH2 0x16F JUMP JUMPDEST SWAP3 SWAP2 POP POP JUMP JUMPDEST PUSH0 DUP1 REVERT JUMPDEST PUSH0 DUP2 SWAP1 POP SWAP2 SWAP1 POP JUMP JUMPDEST PUSH2 0x1AD DUP2 PUSH2 0x19B JUMP JUMPDEST DUP2 EQ PUSH2 0x1B7 JUMPI PUSH0 DUP1 REVERT JUMPDEST POP JUMP JUMPDEST PUSH0 DUP2 CALLDATALOAD SWAP1 POP PUSH2 0x1C8 DUP2 PUSH2 0x1A4 JUMP JUMPDEST SWAP3 SWAP2 POP POP JUMP JUMPDEST PUSH0 PUSH1 0x20 DUP3 DUP5 SUB SLT ISZERO PUSH2 0x1E3 JUMPI PUSH2 0x1E2 PUSH2 0x197 JUMP JUMPDEST JUMPDEST PUSH0 PUSH2 0x1F0 DUP5 DUP3 DUP6 ADD PUSH2 0x1BA JUMP JUMPDEST SWAP2 POP POP SWAP3 SWAP2 POP POP JUMP JUMPDEST PUSH1 0x4 DUP2 LT PUSH2 0x205 JUMPI PUSH0 DUP1 REVERT JUMPDEST POP JUMP JUMPDEST PUSH0 DUP2 CALLDATALOAD SWAP1 POP PUSH2 0x216 DUP2 PUSH2 0x1F9 JUMP JUMPDEST SWAP3 SWAP2 POP POP JUMP JUMPDEST PUSH0 PUSH1 0x20 DUP3 DUP5 SUB SLT ISZERO PUSH2 0x231 JUMPI PUSH2 0x230 PUSH2 0x197 JUMP JUMPDEST JUMPDEST PUSH0 PUSH2 0x23E DUP5 DUP3 DUP6 ADD PUSH2 0x208 JUMP JUMPDEST SWAP2 POP POP SWAP3 SWAP2 POP POP JUMP JUMPDEST PUSH2 0x250 DUP2 PUSH2 0x19B JUMP JUMPDEST DUP3 MSTORE POP POP JUMP JUMPDEST PUSH0 PUSH1 0x20 DUP3 ADD SWAP1 POP PUSH2 0x269 PUSH0 DUP4 ADD DUP5 PUSH2 0x247 JUMP JUMPDEST SWAP3 SWAP2 POP POP JUMP INVALID LOG2 PUSH5 0x6970667358 0x22 SLT KECCAK256 MOD RETURN CHAINID AND 0xB0 PUSH8 0x7D2156CC5D934B1B PUSH29 0x7C08B819FB425B15D202A8EB02387B2F264736F6C634300081A003300 "
				},
				"gasEstimates": {
					"creation": {
						"codeDepositCost": "135400",
						"executionCost": "24479",
						"totalCost": "159879"
					},
					"external": {
						"enumToUint(uint8)": "599",
						"getChoice()": "2539",
						"uintToEnum(uint256)": "713"
					}
				},
				"methodIdentifiers": {
					"enumToUint(uint8)": "a79140b0",
					"getChoice()": "67cb61b6",
					"uintToEnum(uint256)": "84c94d2e"
				}
			},
			"storageLayout": {
				"storage": [
					{
						"astId": 11,
						"contract": "contracts/Enum.sol:Enum",
						"label": "choice",
						"offset": 0,
						"slot": "0",
						"type": "t_enum(ActionChoices)6"
					}
				],
				"types": {
					"t_enum(ActionChoices)6": {
						"encoding": "inplace",
						"label": "enum Enum.ActionChoices",
						"numberOfBytes": "1"
					}
				}
			},
			"userdoc": {
				"kind": "user",
				"methods": {},
				"version": 1
			}
		}
	}
}