{
	"contracts/Ifelse.sol": {
		"Ifelse": {
			"abi": [
				{
					"inputs": [
						{
							"internalType": "uint256",
							"name": "x",
							"type": "uint256"
						}
					],
					"name": "foo",
					"outputs": [
						{
							"internalType": "uint256",
							"name": "",
							"type": "uint256"
						}
					],
					"stateMutability": "pure",
					"type": "function"
				},
				{
					"inputs": [
						{
							"internalType": "uint16",
							"name": "n",
							"type": "uint16"
						}
					],
					"name": "sumToFor",
					"outputs": [
						{
							"internalType": "uint16",
							"name": "",
							"type": "uint16"
						}
					],
					"stateMutability": "pure",
					"type": "function"
				},
				{
					"inputs": [
						{
							"internalType": "uint16",
							"name": "n",
							"type": "uint16"
						}
					],
					"name": "sumToN",
					"outputs": [
						{
							"internalType": "uint16",
							"name": "",
							"type": "uint16"
						}
					],
					"stateMutability": "pure",
					"type": "function"
				},
				{
					"inputs": [
						{
							"internalType": "uint256",
							"name": "_x",
							"type": "uint256"
						}
					],
					"name": "ternary",
					"outputs": [
						{
							"internalType": "uint256",
							"name": "",
							"type": "uint256"
						}
					],
					"stateMutability": "pure",
					"type": "function"
				}
			],
			"devdoc": {
				"kind": "dev",
				"methods": {},
				"version": 1
			},
			"evm": {
				"assembly": "    /* \"contracts/Ifelse.sol\":61:1186  contract Ifelse {... */\n  mstore(0x40, 0x80)\n  callvalue\n  dup1\n  iszero\n  tag_1\n  jumpi\n  0x00\n  dup1\n  revert\ntag_1:\n  pop\n  dataSize(sub_0)\n  dup1\n  dataOffset(sub_0)\n  0x00\n  codecopy\n  0x00\n  return\nstop\n\nsub_0: assembly {\n        /* \"contracts/Ifelse.sol\":61:1186  contract Ifelse {... */\n      mstore(0x40, 0x80)\n      callvalue\n      dup1\n      iszero\n      tag_1\n      jumpi\n      0x00\n      dup1\n      revert\n    tag_1:\n      pop\n      jumpi(tag_2, lt(calldatasize, 0x04))\n      shr(0xe0, calldataload(0x00))\n      dup1\n      0x2fbebd38\n      eq\n      tag_3\n      jumpi\n      dup1\n      0x55278c5b\n      eq\n      tag_4\n      jumpi\n      dup1\n      0xd3d75400\n      eq\n      tag_5\n      jumpi\n      dup1\n      0xe7dcc124\n      eq\n      tag_6\n      jumpi\n    tag_2:\n      0x00\n      dup1\n      revert\n        /* \"contracts/Ifelse.sol\":84:297  function foo(uint256 x) public pure returns (uint256) {... */\n    tag_3:\n      tag_7\n      0x04\n      dup1\n      calldatasize\n      sub\n      dup2\n      add\n      swap1\n      tag_8\n      swap2\n      swap1\n      tag_9\n      jump\t// in\n    tag_8:\n      tag_10\n      jump\t// in\n    tag_7:\n      mload(0x40)\n      tag_11\n      swap2\n      swap1\n      tag_12\n      jump\t// in\n    tag_11:\n      mload(0x40)\n      dup1\n      swap2\n      sub\n      swap1\n      return\n        /* \"contracts/Ifelse.sol\":305:611  function ternary(uint256 _x) public pure returns (uint256) {... */\n    tag_4:\n      tag_13\n      0x04\n      dup1\n      calldatasize\n      sub\n      dup2\n      add\n      swap1\n      tag_14\n      swap2\n      swap1\n      tag_9\n      jump\t// in\n    tag_14:\n      tag_15\n      jump\t// in\n    tag_13:\n      mload(0x40)\n      tag_16\n      swap2\n      swap1\n      tag_12\n      jump\t// in\n    tag_16:\n      mload(0x40)\n      dup1\n      swap2\n      sub\n      swap1\n      return\n        /* \"contracts/Ifelse.sol\":621:879  function sumToN(uint16 n) public pure returns(uint16) {... */\n    tag_5:\n      tag_17\n      0x04\n      dup1\n      calldatasize\n      sub\n      dup2\n      add\n      swap1\n      tag_18\n      swap2\n      swap1\n      tag_19\n      jump\t// in\n    tag_18:\n      tag_20\n      jump\t// in\n    tag_17:\n      mload(0x40)\n      tag_21\n      swap2\n      swap1\n      tag_22\n      jump\t// in\n    tag_21:\n      mload(0x40)\n      dup1\n      swap2\n      sub\n      swap1\n      return\n        /* \"contracts/Ifelse.sol\":889:1183  function sumToFor(uint16 n) public pure returns(uint16) {... */\n    tag_6:\n      tag_23\n      0x04\n      dup1\n      calldatasize\n      sub\n      dup2\n      add\n      swap1\n      tag_24\n      swap2\n      swap1\n      tag_19\n      jump\t// in\n    tag_24:\n      tag_25\n      jump\t// in\n    tag_23:\n      mload(0x40)\n      tag_26\n      swap2\n      swap1\n      tag_22\n      jump\t// in\n    tag_26:\n      mload(0x40)\n      dup1\n      swap2\n      sub\n      swap1\n      return\n        /* \"contracts/Ifelse.sol\":84:297  function foo(uint256 x) public pure returns (uint256) {... */\n    tag_10:\n        /* \"contracts/Ifelse.sol\":129:136  uint256 */\n      0x00\n        /* \"contracts/Ifelse.sol\":157:159  10 */\n      0x0a\n        /* \"contracts/Ifelse.sol\":153:154  x */\n      dup3\n        /* \"contracts/Ifelse.sol\":153:159  x < 10 */\n      lt\n        /* \"contracts/Ifelse.sol\":149:290  if (x < 10) {... */\n      iszero\n      tag_28\n      jumpi\n        /* \"contracts/Ifelse.sol\":183:184  0 */\n      0x00\n        /* \"contracts/Ifelse.sol\":176:184  return 0 */\n      swap1\n      pop\n      jump(tag_27)\n        /* \"contracts/Ifelse.sol\":149:290  if (x < 10) {... */\n    tag_28:\n        /* \"contracts/Ifelse.sol\":210:212  20 */\n      0x14\n        /* \"contracts/Ifelse.sol\":206:207  x */\n      dup3\n        /* \"contracts/Ifelse.sol\":206:212  x < 20 */\n      lt\n        /* \"contracts/Ifelse.sol\":202:290  if (x < 20) {... */\n      iszero\n      tag_30\n      jumpi\n        /* \"contracts/Ifelse.sol\":236:237  1 */\n      0x01\n        /* \"contracts/Ifelse.sol\":229:237  return 1 */\n      swap1\n      pop\n      jump(tag_27)\n        /* \"contracts/Ifelse.sol\":202:290  if (x < 20) {... */\n    tag_30:\n        /* \"contracts/Ifelse.sol\":277:278  2 */\n      0x02\n        /* \"contracts/Ifelse.sol\":270:278  return 2 */\n      swap1\n      pop\n        /* \"contracts/Ifelse.sol\":84:297  function foo(uint256 x) public pure returns (uint256) {... */\n    tag_27:\n      swap2\n      swap1\n      pop\n      jump\t// out\n        /* \"contracts/Ifelse.sol\":305:611  function ternary(uint256 _x) public pure returns (uint256) {... */\n    tag_15:\n        /* \"contracts/Ifelse.sol\":355:362  uint256 */\n      0x00\n        /* \"contracts/Ifelse.sol\":593:595  10 */\n      0x0a\n        /* \"contracts/Ifelse.sol\":588:590  _x */\n      dup3\n        /* \"contracts/Ifelse.sol\":588:595  _x < 10 */\n      lt\n        /* \"contracts/Ifelse.sol\":588:603  _x < 10 ? 1 : 2 */\n      tag_33\n      jumpi\n        /* \"contracts/Ifelse.sol\":602:603  2 */\n      0x02\n        /* \"contracts/Ifelse.sol\":588:603  _x < 10 ? 1 : 2 */\n      jump(tag_34)\n    tag_33:\n        /* \"contracts/Ifelse.sol\":598:599  1 */\n      0x01\n        /* \"contracts/Ifelse.sol\":588:603  _x < 10 ? 1 : 2 */\n    tag_34:\n        /* \"contracts/Ifelse.sol\":581:603  return _x < 10 ? 1 : 2 */\n      0xff\n      and\n      swap1\n      pop\n        /* \"contracts/Ifelse.sol\":305:611  function ternary(uint256 _x) public pure returns (uint256) {... */\n      swap2\n      swap1\n      pop\n      jump\t// out\n        /* \"contracts/Ifelse.sol\":621:879  function sumToN(uint16 n) public pure returns(uint16) {... */\n    tag_20:\n        /* \"contracts/Ifelse.sol\":667:673  uint16 */\n      0x00\n        /* \"contracts/Ifelse.sol\":686:696  uint16 sum */\n      dup1\n        /* \"contracts/Ifelse.sol\":699:700  0 */\n      0x00\n        /* \"contracts/Ifelse.sol\":686:700  uint16 sum = 0 */\n      swap1\n      pop\n        /* \"contracts/Ifelse.sol\":711:719  uint16 i */\n      0x00\n        /* \"contracts/Ifelse.sol\":722:723  1 */\n      0x01\n        /* \"contracts/Ifelse.sol\":711:723  uint16 i = 1 */\n      swap1\n      pop\n        /* \"contracts/Ifelse.sol\":735:851  while(i <= n) { //只改了这一行... */\n    tag_36:\n        /* \"contracts/Ifelse.sol\":746:747  n */\n      dup4\n        /* \"contracts/Ifelse.sol\":741:747  i <= n */\n      0xffff\n      and\n        /* \"contracts/Ifelse.sol\":741:742  i */\n      dup2\n        /* \"contracts/Ifelse.sol\":741:747  i <= n */\n      0xffff\n      and\n      gt\n        /* \"contracts/Ifelse.sol\":735:851  while(i <= n) { //只改了这一行... */\n      tag_37\n      jumpi\n        /* \"contracts/Ifelse.sol\":792:793  i */\n      dup1\n        /* \"contracts/Ifelse.sol\":785:793  sum += i */\n      dup3\n      tag_38\n      swap2\n      swap1\n      tag_39\n      jump\t// in\n    tag_38:\n      swap2\n      pop\n        /* \"contracts/Ifelse.sol\":808:811  i++ */\n      dup1\n      dup1\n      tag_40\n      swap1\n      tag_41\n      jump\t// in\n    tag_40:\n      swap2\n      pop\n      pop\n        /* \"contracts/Ifelse.sol\":735:851  while(i <= n) { //只改了这一行... */\n      jump(tag_36)\n    tag_37:\n        /* \"contracts/Ifelse.sol\":868:871  sum */\n      dup2\n        /* \"contracts/Ifelse.sol\":861:871  return sum */\n      swap3\n      pop\n      pop\n      pop\n        /* \"contracts/Ifelse.sol\":621:879  function sumToN(uint16 n) public pure returns(uint16) {... */\n      swap2\n      swap1\n      pop\n      jump\t// out\n        /* \"contracts/Ifelse.sol\":889:1183  function sumToFor(uint16 n) public pure returns(uint16) {... */\n    tag_25:\n        /* \"contracts/Ifelse.sol\":937:943  uint16 */\n      0x00\n        /* \"contracts/Ifelse.sol\":956:966  uint16 sum */\n      dup1\n        /* \"contracts/Ifelse.sol\":969:970  0 */\n      0x00\n        /* \"contracts/Ifelse.sol\":956:970  uint16 sum = 0 */\n      swap1\n      pop\n        /* \"contracts/Ifelse.sol\":981:989  uint16 i */\n      0x00\n        /* \"contracts/Ifelse.sol\":992:993  1 */\n      0x01\n        /* \"contracts/Ifelse.sol\":981:993  uint16 i = 1 */\n      swap1\n      pop\n        /* \"contracts/Ifelse.sol\":1005:1155  for(; i <= n; ) { // 循环控制语句只剩下test-statement: i <= n... */\n    tag_43:\n        /* \"contracts/Ifelse.sol\":1016:1017  n */\n      dup4\n        /* \"contracts/Ifelse.sol\":1011:1017  i <= n */\n      0xffff\n      and\n        /* \"contracts/Ifelse.sol\":1011:1012  i */\n      dup2\n        /* \"contracts/Ifelse.sol\":1011:1017  i <= n */\n      0xffff\n      and\n      gt\n        /* \"contracts/Ifelse.sol\":1005:1155  for(; i <= n; ) { // 循环控制语句只剩下test-statement: i <= n... */\n      tag_44\n      jumpi\n        /* \"contracts/Ifelse.sol\":1096:1097  i */\n      dup1\n        /* \"contracts/Ifelse.sol\":1089:1097  sum += i */\n      dup3\n      tag_46\n      swap2\n      swap1\n      tag_39\n      jump\t// in\n    tag_46:\n      swap2\n      pop\n        /* \"contracts/Ifelse.sol\":1112:1115  i++ */\n      dup1\n      dup1\n      tag_47\n      swap1\n      tag_41\n      jump\t// in\n    tag_47:\n      swap2\n      pop\n      pop\n        /* \"contracts/Ifelse.sol\":1005:1155  for(; i <= n; ) { // 循环控制语句只剩下test-statement: i <= n... */\n      jump(tag_43)\n    tag_44:\n        /* \"contracts/Ifelse.sol\":1172:1175  sum */\n      dup2\n        /* \"contracts/Ifelse.sol\":1165:1175  return sum */\n      swap3\n      pop\n      pop\n      pop\n        /* \"contracts/Ifelse.sol\":889:1183  function sumToFor(uint16 n) public pure returns(uint16) {... */\n      swap2\n      swap1\n      pop\n      jump\t// out\n        /* \"#utility.yul\":88:205   */\n    tag_49:\n        /* \"#utility.yul\":197:198   */\n      0x00\n        /* \"#utility.yul\":194:195   */\n      dup1\n        /* \"#utility.yul\":187:199   */\n      revert\n        /* \"#utility.yul\":334:411   */\n    tag_51:\n        /* \"#utility.yul\":371:378   */\n      0x00\n        /* \"#utility.yul\":400:405   */\n      dup2\n        /* \"#utility.yul\":389:405   */\n      swap1\n      pop\n        /* \"#utility.yul\":334:411   */\n      swap2\n      swap1\n      pop\n      jump\t// out\n        /* \"#utility.yul\":417:539   */\n    tag_52:\n        /* \"#utility.yul\":490:514   */\n      tag_66\n        /* \"#utility.yul\":508:513   */\n      dup2\n        /* \"#utility.yul\":490:514   */\n      tag_51\n      jump\t// in\n    tag_66:\n        /* \"#utility.yul\":483:488   */\n      dup2\n        /* \"#utility.yul\":480:515   */\n      eq\n        /* \"#utility.yul\":470:533   */\n      tag_67\n      jumpi\n        /* \"#utility.yul\":529:530   */\n      0x00\n        /* \"#utility.yul\":526:527   */\n      dup1\n        /* \"#utility.yul\":519:531   */\n      revert\n        /* \"#utility.yul\":470:533   */\n    tag_67:\n        /* \"#utility.yul\":417:539   */\n      pop\n      jump\t// out\n        /* \"#utility.yul\":545:684   */\n    tag_53:\n        /* \"#utility.yul\":591:596   */\n      0x00\n        /* \"#utility.yul\":629:635   */\n      dup2\n        /* \"#utility.yul\":616:636   */\n      calldataload\n        /* \"#utility.yul\":607:636   */\n      swap1\n      pop\n        /* \"#utility.yul\":645:678   */\n      tag_69\n        /* \"#utility.yul\":672:677   */\n      dup2\n        /* \"#utility.yul\":645:678   */\n      tag_52\n      jump\t// in\n    tag_69:\n        /* \"#utility.yul\":545:684   */\n      swap3\n      swap2\n      pop\n      pop\n      jump\t// out\n        /* \"#utility.yul\":690:1019   */\n    tag_9:\n        /* \"#utility.yul\":749:755   */\n      0x00\n        /* \"#utility.yul\":798:800   */\n      0x20\n        /* \"#utility.yul\":786:795   */\n      dup3\n        /* \"#utility.yul\":777:784   */\n      dup5\n        /* \"#utility.yul\":773:796   */\n      sub\n        /* \"#utility.yul\":769:801   */\n      slt\n        /* \"#utility.yul\":766:885   */\n      iszero\n      tag_71\n      jumpi\n        /* \"#utility.yul\":804:883   */\n      tag_72\n      tag_49\n      jump\t// in\n    tag_72:\n        /* \"#utility.yul\":766:885   */\n    tag_71:\n        /* \"#utility.yul\":924:925   */\n      0x00\n        /* \"#utility.yul\":949:1002   */\n      tag_73\n        /* \"#utility.yul\":994:1001   */\n      dup5\n        /* \"#utility.yul\":985:991   */\n      dup3\n        /* \"#utility.yul\":974:983   */\n      dup6\n        /* \"#utility.yul\":970:992   */\n      add\n        /* \"#utility.yul\":949:1002   */\n      tag_53\n      jump\t// in\n    tag_73:\n        /* \"#utility.yul\":939:1002   */\n      swap2\n      pop\n        /* \"#utility.yul\":895:1012   */\n      pop\n        /* \"#utility.yul\":690:1019   */\n      swap3\n      swap2\n      pop\n      pop\n      jump\t// out\n        /* \"#utility.yul\":1025:1143   */\n    tag_54:\n        /* \"#utility.yul\":1112:1136   */\n      tag_75\n        /* \"#utility.yul\":1130:1135   */\n      dup2\n        /* \"#utility.yul\":1112:1136   */\n      tag_51\n      jump\t// in\n    tag_75:\n        /* \"#utility.yul\":1107:1110   */\n      dup3\n        /* \"#utility.yul\":1100:1137   */\n      mstore\n        /* \"#utility.yul\":1025:1143   */\n      pop\n      pop\n      jump\t// out\n        /* \"#utility.yul\":1149:1371   */\n    tag_12:\n        /* \"#utility.yul\":1242:1246   */\n      0x00\n        /* \"#utility.yul\":1280:1282   */\n      0x20\n        /* \"#utility.yul\":1269:1278   */\n      dup3\n        /* \"#utility.yul\":1265:1283   */\n      add\n        /* \"#utility.yul\":1257:1283   */\n      swap1\n      pop\n        /* \"#utility.yul\":1293:1364   */\n      tag_77\n        /* \"#utility.yul\":1361:1362   */\n      0x00\n        /* \"#utility.yul\":1350:1359   */\n      dup4\n        /* \"#utility.yul\":1346:1363   */\n      add\n        /* \"#utility.yul\":1337:1343   */\n      dup5\n        /* \"#utility.yul\":1293:1364   */\n      tag_54\n      jump\t// in\n    tag_77:\n        /* \"#utility.yul\":1149:1371   */\n      swap3\n      swap2\n      pop\n      pop\n      jump\t// out\n        /* \"#utility.yul\":1377:1466   */\n    tag_55:\n        /* \"#utility.yul\":1413:1420   */\n      0x00\n        /* \"#utility.yul\":1453:1459   */\n      0xffff\n        /* \"#utility.yul\":1446:1451   */\n      dup3\n        /* \"#utility.yul\":1442:1460   */\n      and\n        /* \"#utility.yul\":1431:1460   */\n      swap1\n      pop\n        /* \"#utility.yul\":1377:1466   */\n      swap2\n      swap1\n      pop\n      jump\t// out\n        /* \"#utility.yul\":1472:1592   */\n    tag_56:\n        /* \"#utility.yul\":1544:1567   */\n      tag_80\n        /* \"#utility.yul\":1561:1566   */\n      dup2\n        /* \"#utility.yul\":1544:1567   */\n      tag_55\n      jump\t// in\n    tag_80:\n        /* \"#utility.yul\":1537:1542   */\n      dup2\n        /* \"#utility.yul\":1534:1568   */\n      eq\n        /* \"#utility.yul\":1524:1586   */\n      tag_81\n      jumpi\n        /* \"#utility.yul\":1582:1583   */\n      0x00\n        /* \"#utility.yul\":1579:1580   */\n      dup1\n        /* \"#utility.yul\":1572:1584   */\n      revert\n        /* \"#utility.yul\":1524:1586   */\n    tag_81:\n        /* \"#utility.yul\":1472:1592   */\n      pop\n      jump\t// out\n        /* \"#utility.yul\":1598:1735   */\n    tag_57:\n        /* \"#utility.yul\":1643:1648   */\n      0x00\n        /* \"#utility.yul\":1681:1687   */\n      dup2\n        /* \"#utility.yul\":1668:1688   */\n      calldataload\n        /* \"#utility.yul\":1659:1688   */\n      swap1\n      pop\n        /* \"#utility.yul\":1697:1729   */\n      tag_83\n        /* \"#utility.yul\":1723:1728   */\n      dup2\n        /* \"#utility.yul\":1697:1729   */\n      tag_56\n      jump\t// in\n    tag_83:\n        /* \"#utility.yul\":1598:1735   */\n      swap3\n      swap2\n      pop\n      pop\n      jump\t// out\n        /* \"#utility.yul\":1741:2068   */\n    tag_19:\n        /* \"#utility.yul\":1799:1805   */\n      0x00\n        /* \"#utility.yul\":1848:1850   */\n      0x20\n        /* \"#utility.yul\":1836:1845   */\n      dup3\n        /* \"#utility.yul\":1827:1834   */\n      dup5\n        /* \"#utility.yul\":1823:1846   */\n      sub\n        /* \"#utility.yul\":1819:1851   */\n      slt\n        /* \"#utility.yul\":1816:1935   */\n      iszero\n      tag_85\n      jumpi\n        /* \"#utility.yul\":1854:1933   */\n      tag_86\n      tag_49\n      jump\t// in\n    tag_86:\n        /* \"#utility.yul\":1816:1935   */\n    tag_85:\n        /* \"#utility.yul\":1974:1975   */\n      0x00\n        /* \"#utility.yul\":1999:2051   */\n      tag_87\n        /* \"#utility.yul\":2043:2050   */\n      dup5\n        /* \"#utility.yul\":2034:2040   */\n      dup3\n        /* \"#utility.yul\":2023:2032   */\n      dup6\n        /* \"#utility.yul\":2019:2041   */\n      add\n        /* \"#utility.yul\":1999:2051   */\n      tag_57\n      jump\t// in\n    tag_87:\n        /* \"#utility.yul\":1989:2051   */\n      swap2\n      pop\n        /* \"#utility.yul\":1945:2061   */\n      pop\n        /* \"#utility.yul\":1741:2068   */\n      swap3\n      swap2\n      pop\n      pop\n      jump\t// out\n        /* \"#utility.yul\":2074:2189   */\n    tag_58:\n        /* \"#utility.yul\":2159:2182   */\n      tag_89\n        /* \"#utility.yul\":2176:2181   */\n      dup2\n        /* \"#utility.yul\":2159:2182   */\n      tag_55\n      jump\t// in\n    tag_89:\n        /* \"#utility.yul\":2154:2157   */\n      dup3\n        /* \"#utility.yul\":2147:2183   */\n      mstore\n        /* \"#utility.yul\":2074:2189   */\n      pop\n      pop\n      jump\t// out\n        /* \"#utility.yul\":2195:2413   */\n    tag_22:\n        /* \"#utility.yul\":2286:2290   */\n      0x00\n        /* \"#utility.yul\":2324:2326   */\n      0x20\n        /* \"#utility.yul\":2313:2322   */\n      dup3\n        /* \"#utility.yul\":2309:2327   */\n      add\n        /* \"#utility.yul\":2301:2327   */\n      swap1\n      pop\n        /* \"#utility.yul\":2337:2406   */\n      tag_91\n        /* \"#utility.yul\":2403:2404   */\n      0x00\n        /* \"#utility.yul\":2392:2401   */\n      dup4\n        /* \"#utility.yul\":2388:2405   */\n      add\n        /* \"#utility.yul\":2379:2385   */\n      dup5\n        /* \"#utility.yul\":2337:2406   */\n      tag_58\n      jump\t// in\n    tag_91:\n        /* \"#utility.yul\":2195:2413   */\n      swap3\n      swap2\n      pop\n      pop\n      jump\t// out\n        /* \"#utility.yul\":2419:2599   */\n    tag_59:\n        /* \"#utility.yul\":2467:2544   */\n      0x4e487b7100000000000000000000000000000000000000000000000000000000\n        /* \"#utility.yul\":2464:2465   */\n      0x00\n        /* \"#utility.yul\":2457:2545   */\n      mstore\n        /* \"#utility.yul\":2564:2568   */\n      0x11\n        /* \"#utility.yul\":2561:2562   */\n      0x04\n        /* \"#utility.yul\":2554:2569   */\n      mstore\n        /* \"#utility.yul\":2588:2592   */\n      0x24\n        /* \"#utility.yul\":2585:2586   */\n      0x00\n        /* \"#utility.yul\":2578:2593   */\n      revert\n        /* \"#utility.yul\":2605:2798   */\n    tag_39:\n        /* \"#utility.yul\":2644:2647   */\n      0x00\n        /* \"#utility.yul\":2663:2682   */\n      tag_94\n        /* \"#utility.yul\":2680:2681   */\n      dup3\n        /* \"#utility.yul\":2663:2682   */\n      tag_55\n      jump\t// in\n    tag_94:\n        /* \"#utility.yul\":2658:2682   */\n      swap2\n      pop\n        /* \"#utility.yul\":2696:2715   */\n      tag_95\n        /* \"#utility.yul\":2713:2714   */\n      dup4\n        /* \"#utility.yul\":2696:2715   */\n      tag_55\n      jump\t// in\n    tag_95:\n        /* \"#utility.yul\":2691:2715   */\n      swap3\n      pop\n        /* \"#utility.yul\":2738:2739   */\n      dup3\n        /* \"#utility.yul\":2735:2736   */\n      dup3\n        /* \"#utility.yul\":2731:2740   */\n      add\n        /* \"#utility.yul\":2724:2740   */\n      swap1\n      pop\n        /* \"#utility.yul\":2761:2767   */\n      0xffff\n        /* \"#utility.yul\":2756:2759   */\n      dup2\n        /* \"#utility.yul\":2753:2768   */\n      gt\n        /* \"#utility.yul\":2750:2791   */\n      iszero\n      tag_96\n      jumpi\n        /* \"#utility.yul\":2771:2789   */\n      tag_97\n      tag_59\n      jump\t// in\n    tag_97:\n        /* \"#utility.yul\":2750:2791   */\n    tag_96:\n        /* \"#utility.yul\":2605:2798   */\n      swap3\n      swap2\n      pop\n      pop\n      jump\t// out\n        /* \"#utility.yul\":2804:2975   */\n    tag_41:\n        /* \"#utility.yul\":2842:2845   */\n      0x00\n        /* \"#utility.yul\":2865:2888   */\n      tag_99\n        /* \"#utility.yul\":2882:2887   */\n      dup3\n        /* \"#utility.yul\":2865:2888   */\n      tag_55\n      jump\t// in\n    tag_99:\n        /* \"#utility.yul\":2856:2888   */\n      swap2\n      pop\n        /* \"#utility.yul\":2910:2916   */\n      0xffff\n        /* \"#utility.yul\":2903:2908   */\n      dup3\n        /* \"#utility.yul\":2900:2917   */\n      sub\n        /* \"#utility.yul\":2897:2940   */\n      tag_100\n      jumpi\n        /* \"#utility.yul\":2920:2938   */\n      tag_101\n      tag_59\n      jump\t// in\n    tag_101:\n        /* \"#utility.yul\":2897:2940   */\n    tag_100:\n        /* \"#utility.yul\":2967:2968   */\n      0x01\n        /* \"#utility.yul\":2960:2965   */\n      dup3\n        /* \"#utility.yul\":2956:2969   */\n      add\n        /* \"#utility.yul\":2949:2969   */\n      swap1\n      pop\n        /* \"#utility.yul\":2804:2975   */\n      swap2\n      swap1\n      pop\n      jump\t// out\n\n    auxdata: 0xa264697066735822122094570d227d7172347af37a4d5b1f63b491420022bd955980f626b3bd2a78494864736f6c634300081a0033\n}\n",
				"bytecode": {
					"linkReferences": {},
					"object": "6080604052348015600e575f80fd5b506103b88061001c5f395ff3fe608060405234801561000f575f80fd5b506004361061004a575f3560e01c80632fbebd381461004e57806355278c5b1461007e578063d3d75400146100ae578063e7dcc124146100de575b5f80fd5b6100686004803603810190610063919061021a565b61010e565b6040516100759190610254565b60405180910390f35b6100986004803603810190610093919061021a565b61013c565b6040516100a59190610254565b60405180910390f35b6100c860048036038101906100c391906102a4565b610159565b6040516100d591906102de565b60405180910390f35b6100f860048036038101906100f391906102a4565b61019e565b60405161010591906102de565b60405180910390f35b5f600a821015610120575f9050610137565b60148210156101325760019050610137565b600290505b919050565b5f600a821061014c57600261014f565b60015b60ff169050919050565b5f805f90505f600190505b8361ffff168161ffff161161019457808261017f9190610324565b9150808061018c90610359565b915050610164565b8192505050919050565b5f805f90505f600190505b8361ffff168161ffff16116101d95780826101c49190610324565b915080806101d190610359565b9150506101a9565b8192505050919050565b5f80fd5b5f819050919050565b6101f9816101e7565b8114610203575f80fd5b50565b5f81359050610214816101f0565b92915050565b5f6020828403121561022f5761022e6101e3565b5b5f61023c84828501610206565b91505092915050565b61024e816101e7565b82525050565b5f6020820190506102675f830184610245565b92915050565b5f61ffff82169050919050565b6102838161026d565b811461028d575f80fd5b50565b5f8135905061029e8161027a565b92915050565b5f602082840312156102b9576102b86101e3565b5b5f6102c684828501610290565b91505092915050565b6102d88161026d565b82525050565b5f6020820190506102f15f8301846102cf565b92915050565b7f4e487b71000000000000000000000000000000000000000000000000000000005f52601160045260245ffd5b5f61032e8261026d565b91506103398361026d565b9250828201905061ffff811115610353576103526102f7565b5b92915050565b5f6103638261026d565b915061ffff8203610377576103766102f7565b5b60018201905091905056fea264697066735822122094570d227d7172347af37a4d5b1f63b491420022bd955980f626b3bd2a78494864736f6c634300081a0033",
					"opcodes": "PUSH1 0x80 PUSH1 0x40 MSTORE CALLVALUE DUP1 ISZERO PUSH1 0xE JUMPI PUSH0 DUP1 REVERT JUMPDEST POP PUSH2 0x3B8 DUP1 PUSH2 0x1C PUSH0 CODECOPY PUSH0 RETURN INVALID PUSH1 0x80 PUSH1 0x40 MSTORE CALLVALUE DUP1 ISZERO PUSH2 0xF JUMPI PUSH0 DUP1 REVERT JUMPDEST POP PUSH1 0x4 CALLDATASIZE LT PUSH2 0x4A JUMPI PUSH0 CALLDATALOAD PUSH1 0xE0 SHR DUP1 PUSH4 0x2FBEBD38 EQ PUSH2 0x4E JUMPI DUP1 PUSH4 0x55278C5B EQ PUSH2 0x7E JUMPI DUP1 PUSH4 0xD3D75400 EQ PUSH2 0xAE JUMPI DUP1 PUSH4 0xE7DCC124 EQ PUSH2 0xDE JUMPI JUMPDEST PUSH0 DUP1 REVERT JUMPDEST PUSH2 0x68 PUSH1 0x4 DUP1 CALLDATASIZE SUB DUP2 ADD SWAP1 PUSH2 0x63 SWAP2 SWAP1 PUSH2 0x21A JUMP JUMPDEST PUSH2 0x10E JUMP JUMPDEST PUSH1 0x40 MLOAD PUSH2 0x75 SWAP2 SWAP1 PUSH2 0x254 JUMP JUMPDEST PUSH1 0x40 MLOAD DUP1 SWAP2 SUB SWAP1 RETURN JUMPDEST PUSH2 0x98 PUSH1 0x4 DUP1 CALLDATASIZE SUB DUP2 ADD SWAP1 PUSH2 0x93 SWAP2 SWAP1 PUSH2 0x21A JUMP JUMPDEST PUSH2 0x13C JUMP JUMPDEST PUSH1 0x40 MLOAD PUSH2 0xA5 SWAP2 SWAP1 PUSH2 0x254 JUMP JUMPDEST PUSH1 0x40 MLOAD DUP1 SWAP2 SUB SWAP1 RETURN JUMPDEST PUSH2 0xC8 PUSH1 0x4 DUP1 CALLDATASIZE SUB DUP2 ADD SWAP1 PUSH2 0xC3 SWAP2 SWAP1 PUSH2 0x2A4 JUMP JUMPDEST PUSH2 0x159 JUMP JUMPDEST PUSH1 0x40 MLOAD PUSH2 0xD5 SWAP2 SWAP1 PUSH2 0x2DE JUMP JUMPDEST PUSH1 0x40 MLOAD DUP1 SWAP2 SUB SWAP1 RETURN JUMPDEST PUSH2 0xF8 PUSH1 0x4 DUP1 CALLDATASIZE SUB DUP2 ADD SWAP1 PUSH2 0xF3 SWAP2 SWAP1 PUSH2 0x2A4 JUMP JUMPDEST PUSH2 0x19E JUMP JUMPDEST PUSH1 0x40 MLOAD PUSH2 0x105 SWAP2 SWAP1 PUSH2 0x2DE JUMP JUMPDEST PUSH1 0x40 MLOAD DUP1 SWAP2 SUB SWAP1 RETURN JUMPDEST PUSH0 PUSH1 0xA DUP3 LT ISZERO PUSH2 0x120 JUMPI PUSH0 SWAP1 POP PUSH2 0x137 JUMP JUMPDEST PUSH1 0x14 DUP3 LT ISZERO PUSH2 0x132 JUMPI PUSH1 0x1 SWAP1 POP PUSH2 0x137 JUMP JUMPDEST PUSH1 0x2 SWAP1 POP JUMPDEST SWAP2 SWAP1 POP JUMP JUMPDEST PUSH0 PUSH1 0xA DUP3 LT PUSH2 0x14C JUMPI PUSH1 0x2 PUSH2 0x14F JUMP JUMPDEST PUSH1 0x1 JUMPDEST PUSH1 0xFF AND SWAP1 POP SWAP2 SWAP1 POP JUMP JUMPDEST PUSH0 DUP1 PUSH0 SWAP1 POP PUSH0 PUSH1 0x1 SWAP1 POP JUMPDEST DUP4 PUSH2 0xFFFF AND DUP2 PUSH2 0xFFFF AND GT PUSH2 0x194 JUMPI DUP1 DUP3 PUSH2 0x17F SWAP2 SWAP1 PUSH2 0x324 JUMP JUMPDEST SWAP2 POP DUP1 DUP1 PUSH2 0x18C SWAP1 PUSH2 0x359 JUMP JUMPDEST SWAP2 POP POP PUSH2 0x164 JUMP JUMPDEST DUP2 SWAP3 POP POP POP SWAP2 SWAP1 POP JUMP JUMPDEST PUSH0 DUP1 PUSH0 SWAP1 POP PUSH0 PUSH1 0x1 SWAP1 POP JUMPDEST DUP4 PUSH2 0xFFFF AND DUP2 PUSH2 0xFFFF AND GT PUSH2 0x1D9 JUMPI DUP1 DUP3 PUSH2 0x1C4 SWAP2 SWAP1 PUSH2 0x324 JUMP JUMPDEST SWAP2 POP DUP1 DUP1 PUSH2 0x1D1 SWAP1 PUSH2 0x359 JUMP JUMPDEST SWAP2 POP POP PUSH2 0x1A9 JUMP JUMPDEST DUP2 SWAP3 POP POP POP SWAP2 SWAP1 POP JUMP JUMPDEST PUSH0 DUP1 REVERT JUMPDEST PUSH0 DUP2 SWAP1 POP SWAP2 SWAP1 POP JUMP JUMPDEST PUSH2 0x1F9 DUP2 PUSH2 0x1E7 JUMP JUMPDEST DUP2 EQ PUSH2 0x203 JUMPI PUSH0 DUP1 REVERT JUMPDEST POP JUMP JUMPDEST PUSH0 DUP2 CALLDATALOAD SWAP1 POP PUSH2 0x214 DUP2 PUSH2 0x1F0 JUMP JUMPDEST SWAP3 SWAP2 POP POP JUMP JUMPDEST PUSH0 PUSH1 0x20 DUP3 DUP5 SUB SLT ISZERO PUSH2 0x22F JUMPI PUSH2 0x22E PUSH2 0x1E3 JUMP JUMPDEST JUMPDEST PUSH0 PUSH2 0x23C DUP5 DUP3 DUP6 ADD PUSH2 0x206 JUMP JUMPDEST SWAP2 POP POP SWAP3 SWAP2 POP POP JUMP JUMPDEST PUSH2 0x24E DUP2 PUSH2 0x1E7 JUMP JUMPDEST DUP3 MSTORE POP POP JUMP JUMPDEST PUSH0 PUSH1 0x20 DUP3 ADD SWAP1 POP PUSH2 0x267 PUSH0 DUP4 ADD DUP5 PUSH2 0x245 JUMP JUMPDEST SWAP3 SWAP2 POP POP JUMP JUMPDEST PUSH0 PUSH2 0xFFFF DUP3 AND SWAP1 POP SWAP2 SWAP1 POP JUMP JUMPDEST PUSH2 0x283 DUP2 PUSH2 0x26D JUMP JUMPDEST DUP2 EQ PUSH2 0x28D JUMPI PUSH0 DUP1 REVERT JUMPDEST POP JUMP JUMPDEST PUSH0 DUP2 CALLDATALOAD SWAP1 POP PUSH2 0x29E DUP2 PUSH2 0x27A JUMP JUMPDEST SWAP3 SWAP2 POP POP JUMP JUMPDEST PUSH0 PUSH1 0x20 DUP3 DUP5 SUB SLT ISZERO PUSH2 0x2B9 JUMPI PUSH2 0x2B8 PUSH2 0x1E3 JUMP JUMPDEST JUMPDEST PUSH0 PUSH2 0x2C6 DUP5 DUP3 DUP6 ADD PUSH2 0x290 JUMP JUMPDEST SWAP2 POP POP SWAP3 SWAP2 POP POP JUMP JUMPDEST PUSH2 0x2D8 DUP2 PUSH2 0x26D JUMP JUMPDEST DUP3 MSTORE POP POP JUMP JUMPDEST PUSH0 PUSH1 0x20 DUP3 ADD SWAP1 POP PUSH2 0x2F1 PUSH0 DUP4 ADD DUP5 PUSH2 0x2CF JUMP JUMPDEST SWAP3 SWAP2 POP POP JUMP JUMPDEST PUSH32 0x4E487B7100000000000000000000000000000000000000000000000000000000 PUSH0 MSTORE PUSH1 0x11 PUSH1 0x4 MSTORE PUSH1 0x24 PUSH0 REVERT JUMPDEST PUSH0 PUSH2 0x32E DUP3 PUSH2 0x26D JUMP JUMPDEST SWAP2 POP PUSH2 0x339 DUP4 PUSH2 0x26D JUMP JUMPDEST SWAP3 POP DUP3 DUP3 ADD SWAP1 POP PUSH2 0xFFFF DUP2 GT ISZERO PUSH2 0x353 JUMPI PUSH2 0x352 PUSH2 0x2F7 JUMP JUMPDEST JUMPDEST SWAP3 SWAP2 POP POP JUMP JUMPDEST PUSH0 PUSH2 0x363 DUP3 PUSH2 0x26D JUMP JUMPDEST SWAP2 POP PUSH2 0xFFFF DUP3 SUB PUSH2 0x377 JUMPI PUSH2 0x376 PUSH2 0x2F7 JUMP JUMPDEST JUMPDEST PUSH1 0x1 DUP3 ADD SWAP1 POP SWAP2 SWAP1 POP JUMP INVALID LOG2 PUSH5 0x6970667358 0x22 SLT KECCAK256 SWAP5 JUMPI 0xD 0x22 PUSH30 0x7172347AF37A4D5B1F63B491420022BD955980F626B3BD2A78494864736F PUSH13 0x634300081A0033000000000000 "
				},
				"gasEstimates": {
					"creation": {
						"codeDepositCost": "190400",
						"executionCost": "230",
						"totalCost": "190630"
					},
					"external": {
						"foo(uint256)": "infinite",
						"sumToFor(uint16)": "infinite",
						"sumToN(uint16)": "infinite",
						"ternary(uint256)": "infinite"
					}
				},
				"methodIdentifiers": {
					"foo(uint256)": "2fbebd38",
					"sumToFor(uint16)": "e7dcc124",
					"sumToN(uint16)": "d3d75400",
					"ternary(uint256)": "55278c5b"
				}
			},
			"storageLayout": {
				"storage": [],
				"types": null
			},
			"userdoc": {
				"kind": "user",
				"methods": {},
				"version": 1
			}
		}
	}
}