{
	"data": {
		"bytecode": {
			"linkReferences": {},
			"object": "60806040527f61626300000000000000000000000000000000000000000000000000000000005f806101000a81548162ffffff021916908360e81c02179055505f8054906101000a900460e81b600160038110605c57605b6088565b5b1a60f81b5f60036101000a81548160ff021916908360f81c02179055503480156083575f80fd5b5060b5565b7f4e487b71000000000000000000000000000000000000000000000000000000005f52603260045260245ffd5b610100806100c25f395ff3fe6080604052348015600e575f80fd5b50600436106026575f3560e01c80630bcd3b3314602a575b5f80fd5b60306044565b604051603b919060b3565b60405180910390f35b5f8060039054906101000a900460f81b7effffffffffffffffffffffffffffffffffffffffffffffffffffffffffffff1916905090565b5f7fffffff000000000000000000000000000000000000000000000000000000000082169050919050565b60ad81607b565b82525050565b5f60208201905060c45f83018460a6565b9291505056fea2646970667358221220579758265995199f018bf820a9ee31263307177629392a82170fbee473381f2f64736f6c634300081a0033",
			"opcodes": "PUSH1 0x80 PUSH1 0x40 MSTORE PUSH32 0x6162630000000000000000000000000000000000000000000000000000000000 PUSH0 DUP1 PUSH2 0x100 EXP DUP2 SLOAD DUP2 PUSH3 0xFFFFFF MUL NOT AND SWAP1 DUP4 PUSH1 0xE8 SHR MUL OR SWAP1 SSTORE POP PUSH0 DUP1 SLOAD SWAP1 PUSH2 0x100 EXP SWAP1 DIV PUSH1 0xE8 SHL PUSH1 0x1 PUSH1 0x3 DUP2 LT PUSH1 0x5C JUMPI PUSH1 0x5B PUSH1 0x88 JUMP JUMPDEST JUMPDEST BYTE PUSH1 0xF8 SHL PUSH0 PUSH1 0x3 PUSH2 0x100 EXP DUP2 SLOAD DUP2 PUSH1 0xFF MUL NOT AND SWAP1 DUP4 PUSH1 0xF8 SHR MUL OR SWAP1 SSTORE POP CALLVALUE DUP1 ISZERO PUSH1 0x83 JUMPI PUSH0 DUP1 REVERT JUMPDEST POP PUSH1 0xB5 JUMP JUMPDEST PUSH32 0x4E487B7100000000000000000000000000000000000000000000000000000000 PUSH0 MSTORE PUSH1 0x32 PUSH1 0x4 MSTORE PUSH1 0x24 PUSH0 REVERT JUMPDEST PUSH2 0x100 DUP1 PUSH2 0xC2 PUSH0 CODECOPY PUSH0 RETURN INVALID PUSH1 0x80 PUSH1 0x40 MSTORE CALLVALUE DUP1 ISZERO PUSH1 0xE JUMPI PUSH0 DUP1 REVERT JUMPDEST POP PUSH1 0x4 CALLDATASIZE LT PUSH1 0x26 JUMPI PUSH0 CALLDATALOAD PUSH1 0xE0 SHR DUP1 PUSH4 0xBCD3B33 EQ PUSH1 0x2A JUMPI JUMPDEST PUSH0 DUP1 REVERT JUMPDEST PUSH1 0x30 PUSH1 0x44 JUMP JUMPDEST PUSH1 0x40 MLOAD PUSH1 0x3B SWAP2 SWAP1 PUSH1 0xB3 JUMP JUMPDEST PUSH1 0x40 MLOAD DUP1 SWAP2 SUB SWAP1 RETURN JUMPDEST PUSH0 DUP1 PUSH1 0x3 SWAP1 SLOAD SWAP1 PUSH2 0x100 EXP SWAP1 DIV PUSH1 0xF8 SHL PUSH31 0xFFFFFFFFFFFFFFFFFFFFFFFFFFFFFFFFFFFFFFFFFFFFFFFFFFFFFFFFFFFFFF NOT AND SWAP1 POP SWAP1 JUMP JUMPDEST PUSH0 PUSH32 0xFFFFFF0000000000000000000000000000000000000000000000000000000000 DUP3 AND SWAP1 POP SWAP2 SWAP1 POP JUMP JUMPDEST PUSH1 0xAD DUP2 PUSH1 0x7B JUMP JUMPDEST DUP3 MSTORE POP POP JUMP JUMPDEST PUSH0 PUSH1 0x20 DUP3 ADD SWAP1 POP PUSH1 0xC4 PUSH0 DUP4 ADD DUP5 PUSH1 0xA6 JUMP JUMPDEST SWAP3 SWAP2 POP POP JUMP INVALID LOG2 PUSH5 0x6970667358 0x22 SLT KECCAK256 JUMPI SWAP8 PC 0x26 MSIZE SWAP6 NOT SWAP16 ADD DUP12 0xF8 KECCAK256 0xA9 0xEE BALANCE 0x26 CALLER SMOD OR PUSH23 0x29392A82170FBEE473381F2F64736F6C634300081A0033 "
		},
		"gasEstimates": {
			"creation": {
				"codeDepositCost": "51200",
				"executionCost": "50858",
				"totalCost": "102058"
			},
			"external": {
				"getBytes()": "2511"
			}
		},
		"methodIdentifiers": {
			"getBytes()": "0bcd3b33"
		}
	},
	"abi": [
		{
			"inputs": [],
			"name": "getBytes",
			"outputs": [
				{
					"internalType": "bytes3",
					"name": "byt",
					"type": "bytes3"
				}
			],
			"stateMutability": "view",
			"type": "function"
		}
	]
}