{
	"data": {
		"bytecode": {
			"linkReferences": {},
			"object": "6080604052348015600e575f80fd5b506103cb8061001c5f395ff3fe608060405234801561000f575f80fd5b506004361061009c575f3560e01c8063aaf05f3d11610064578063aaf05f3d14610144578063c27fc3051461014e578063c298557814610158578063cf35f82314610162578063d7531d91146101925761009c565b80630b94e4f7146100a05780632fbebd38146100bc578063771602f7146100d85780639942ec6f14610108578063a8bc842314610112575b5f80fd5b6100ba60048036038101906100b5919061021f565b6101ae565b005b6100d660048036038101906100d1919061026f565b6101b3565b005b6100f260048036038101906100ed919061029a565b6101b6565b6040516100ff91906102e7565b60405180910390f35b6101106101cb565b005b61012c6004803603810190610127919061021f565b6101cd565b60405161013b93929190610300565b60405180910390f35b61014c6101d9565b005b6101566101db565b005b6101606101dd565b005b61017c6004803603810190610177919061026f565b6101df565b60405161018991906102e7565b60405180910390f35b6101ac60048036038101906101a7919061026f565b6101e5565b005b505050565b50565b5f81836101c39190610362565b905092915050565b565b5f805f93509350939050565b565b565b565b5f919050565b50565b5f80fd5b5f819050919050565b6101fe816101ec565b8114610208575f80fd5b50565b5f81359050610219816101f5565b92915050565b5f805f60608486031215610236576102356101e8565b5b5f6102438682870161020b565b93505060206102548682870161020b565b92505060406102658682870161020b565b9150509250925092565b5f60208284031215610284576102836101e8565b5b5f6102918482850161020b565b91505092915050565b5f80604083850312156102b0576102af6101e8565b5b5f6102bd8582860161020b565b92505060206102ce8582860161020b565b9150509250929050565b6102e1816101ec565b82525050565b5f6020820190506102fa5f8301846102d8565b92915050565b5f6060820190506103135f8301866102d8565b61032060208301856102d8565b61032d60408301846102d8565b949350505050565b7f4e487b71000000000000000000000000000000000000000000000000000000005f52601160045260245ffd5b5f61036c826101ec565b9150610377836101ec565b925082820190508082111561038f5761038e610335565b5b9291505056fea2646970667358221220b895ab520ed0f8542eba1f45833fef2ba1c1da953ed3029c0fbe479c02b9b2f864736f6c634300081a0033",
			"opcodes": "PUSH1 0x80 PUSH1 0x40 MSTORE CALLVALUE DUP1 ISZERO PUSH1 0xE JUMPI PUSH0 DUP1 REVERT JUMPDEST POP PUSH2 0x3CB DUP1 PUSH2 0x1C PUSH0 CODECOPY PUSH0 RETURN INVALID PUSH1 0x80 PUSH1 0x40 MSTORE CALLVALUE DUP1 ISZERO PUSH2 0xF JUMPI PUSH0 DUP1 REVERT JUMPDEST POP PUSH1 0x4 CALLDATASIZE LT PUSH2 0x9C JUMPI PUSH0 CALLDATALOAD PUSH1 0xE0 SHR DUP1 PUSH4 0xAAF05F3D GT PUSH2 0x64 JUMPI DUP1 PUSH4 0xAAF05F3D EQ PUSH2 0x144 JUMPI DUP1 PUSH4 0xC27FC305 EQ PUSH2 0x14E JUMPI DUP1 PUSH4 0xC2985578 EQ PUSH2 0x158 JUMPI DUP1 PUSH4 0xCF35F823 EQ PUSH2 0x162 JUMPI DUP1 PUSH4 0xD7531D91 EQ PUSH2 0x192 JUMPI PUSH2 0x9C JUMP JUMPDEST DUP1 PUSH4 0xB94E4F7 EQ PUSH2 0xA0 JUMPI DUP1 PUSH4 0x2FBEBD38 EQ PUSH2 0xBC JUMPI DUP1 PUSH4 0x771602F7 EQ PUSH2 0xD8 JUMPI DUP1 PUSH4 0x9942EC6F EQ PUSH2 0x108 JUMPI DUP1 PUSH4 0xA8BC8423 EQ PUSH2 0x112 JUMPI JUMPDEST PUSH0 DUP1 REVERT JUMPDEST PUSH2 0xBA PUSH1 0x4 DUP1 CALLDATASIZE SUB DUP2 ADD SWAP1 PUSH2 0xB5 SWAP2 SWAP1 PUSH2 0x21F JUMP JUMPDEST PUSH2 0x1AE JUMP JUMPDEST STOP JUMPDEST PUSH2 0xD6 PUSH1 0x4 DUP1 CALLDATASIZE SUB DUP2 ADD SWAP1 PUSH2 0xD1 SWAP2 SWAP1 PUSH2 0x26F JUMP JUMPDEST PUSH2 0x1B3 JUMP JUMPDEST STOP JUMPDEST PUSH2 0xF2 PUSH1 0x4 DUP1 CALLDATASIZE SUB DUP2 ADD SWAP1 PUSH2 0xED SWAP2 SWAP1 PUSH2 0x29A JUMP JUMPDEST PUSH2 0x1B6 JUMP JUMPDEST PUSH1 0x40 MLOAD PUSH2 0xFF SWAP2 SWAP1 PUSH2 0x2E7 JUMP JUMPDEST PUSH1 0x40 MLOAD DUP1 SWAP2 SUB SWAP1 RETURN JUMPDEST PUSH2 0x110 PUSH2 0x1CB JUMP JUMPDEST STOP JUMPDEST PUSH2 0x12C PUSH1 0x4 DUP1 CALLDATASIZE SUB DUP2 ADD SWAP1 PUSH2 0x127 SWAP2 SWAP1 PUSH2 0x21F JUMP JUMPDEST PUSH2 0x1CD JUMP JUMPDEST PUSH1 0x40 MLOAD PUSH2 0x13B SWAP4 SWAP3 SWAP2 SWAP1 PUSH2 0x300 JUMP JUMPDEST PUSH1 0x40 MLOAD DUP1 SWAP2 SUB SWAP1 RETURN JUMPDEST PUSH2 0x14C PUSH2 0x1D9 JUMP JUMPDEST STOP JUMPDEST PUSH2 0x156 PUSH2 0x1DB JUMP JUMPDEST STOP JUMPDEST PUSH2 0x160 PUSH2 0x1DD JUMP JUMPDEST STOP JUMPDEST PUSH2 0x17C PUSH1 0x4 DUP1 CALLDATASIZE SUB DUP2 ADD SWAP1 PUSH2 0x177 SWAP2 SWAP1 PUSH2 0x26F JUMP JUMPDEST PUSH2 0x1DF JUMP JUMPDEST PUSH1 0x40 MLOAD PUSH2 0x189 SWAP2 SWAP1 PUSH2 0x2E7 JUMP JUMPDEST PUSH1 0x40 MLOAD DUP1 SWAP2 SUB SWAP1 RETURN JUMPDEST PUSH2 0x1AC PUSH1 0x4 DUP1 CALLDATASIZE SUB DUP2 ADD SWAP1 PUSH2 0x1A7 SWAP2 SWAP1 PUSH2 0x26F JUMP JUMPDEST PUSH2 0x1E5 JUMP JUMPDEST STOP JUMPDEST POP POP POP JUMP JUMPDEST POP JUMP JUMPDEST PUSH0 DUP2 DUP4 PUSH2 0x1C3 SWAP2 SWAP1 PUSH2 0x362 JUMP JUMPDEST SWAP1 POP SWAP3 SWAP2 POP POP JUMP JUMPDEST JUMP JUMPDEST PUSH0 DUP1 PUSH0 SWAP4 POP SWAP4 POP SWAP4 SWAP1 POP JUMP JUMPDEST JUMP JUMPDEST JUMP JUMPDEST JUMP JUMPDEST PUSH0 SWAP2 SWAP1 POP JUMP JUMPDEST POP JUMP JUMPDEST PUSH0 DUP1 REVERT JUMPDEST PUSH0 DUP2 SWAP1 POP SWAP2 SWAP1 POP JUMP JUMPDEST PUSH2 0x1FE DUP2 PUSH2 0x1EC JUMP JUMPDEST DUP2 EQ PUSH2 0x208 JUMPI PUSH0 DUP1 REVERT JUMPDEST POP JUMP JUMPDEST PUSH0 DUP2 CALLDATALOAD SWAP1 POP PUSH2 0x219 DUP2 PUSH2 0x1F5 JUMP JUMPDEST SWAP3 SWAP2 POP POP JUMP JUMPDEST PUSH0 DUP1 PUSH0 PUSH1 0x60 DUP5 DUP7 SUB SLT ISZERO PUSH2 0x236 JUMPI PUSH2 0x235 PUSH2 0x1E8 JUMP JUMPDEST JUMPDEST PUSH0 PUSH2 0x243 DUP7 DUP3 DUP8 ADD PUSH2 0x20B JUMP JUMPDEST SWAP4 POP POP PUSH1 0x20 PUSH2 0x254 DUP7 DUP3 DUP8 ADD PUSH2 0x20B JUMP JUMPDEST SWAP3 POP POP PUSH1 0x40 PUSH2 0x265 DUP7 DUP3 DUP8 ADD PUSH2 0x20B JUMP JUMPDEST SWAP2 POP POP SWAP3 POP SWAP3 POP SWAP3 JUMP JUMPDEST PUSH0 PUSH1 0x20 DUP3 DUP5 SUB SLT ISZERO PUSH2 0x284 JUMPI PUSH2 0x283 PUSH2 0x1E8 JUMP JUMPDEST JUMPDEST PUSH0 PUSH2 0x291 DUP5 DUP3 DUP6 ADD PUSH2 0x20B JUMP JUMPDEST SWAP2 POP POP SWAP3 SWAP2 POP POP JUMP JUMPDEST PUSH0 DUP1 PUSH1 0x40 DUP4 DUP6 SUB SLT ISZERO PUSH2 0x2B0 JUMPI PUSH2 0x2AF PUSH2 0x1E8 JUMP JUMPDEST JUMPDEST PUSH0 PUSH2 0x2BD DUP6 DUP3 DUP7 ADD PUSH2 0x20B JUMP JUMPDEST SWAP3 POP POP PUSH1 0x20 PUSH2 0x2CE DUP6 DUP3 DUP7 ADD PUSH2 0x20B JUMP JUMPDEST SWAP2 POP POP SWAP3 POP SWAP3 SWAP1 POP JUMP JUMPDEST PUSH2 0x2E1 DUP2 PUSH2 0x1EC JUMP JUMPDEST DUP3 MSTORE POP POP JUMP JUMPDEST PUSH0 PUSH1 0x20 DUP3 ADD SWAP1 POP PUSH2 0x2FA PUSH0 DUP4 ADD DUP5 PUSH2 0x2D8 JUMP JUMPDEST SWAP3 SWAP2 POP POP JUMP JUMPDEST PUSH0 PUSH1 0x60 DUP3 ADD SWAP1 POP PUSH2 0x313 PUSH0 DUP4 ADD DUP7 PUSH2 0x2D8 JUMP JUMPDEST PUSH2 0x320 PUSH1 0x20 DUP4 ADD DUP6 PUSH2 0x2D8 JUMP JUMPDEST PUSH2 0x32D PUSH1 0x40 DUP4 ADD DUP5 PUSH2 0x2D8 JUMP JUMPDEST SWAP5 SWAP4 POP POP POP POP JUMP JUMPDEST PUSH32 0x4E487B7100000000000000000000000000000000000000000000000000000000 PUSH0 MSTORE PUSH1 0x11 PUSH1 0x4 MSTORE PUSH1 0x24 PUSH0 REVERT JUMPDEST PUSH0 PUSH2 0x36C DUP3 PUSH2 0x1EC JUMP JUMPDEST SWAP2 POP PUSH2 0x377 DUP4 PUSH2 0x1EC JUMP JUMPDEST SWAP3 POP DUP3 DUP3 ADD SWAP1 POP DUP1 DUP3 GT ISZERO PUSH2 0x38F JUMPI PUSH2 0x38E PUSH2 0x335 JUMP JUMPDEST JUMPDEST SWAP3 SWAP2 POP POP JUMP INVALID LOG2 PUSH5 0x6970667358 0x22 SLT KECCAK256 0xB8 SWAP6 0xAB MSTORE 0xE 0xD0 0xF8 SLOAD 0x2E 0xBA 0x1F GASLIMIT DUP4 EXTCODEHASH 0xEF 0x2B LOG1 0xC1 0xDA SWAP6 RETURNDATACOPY 0xD3 MUL SWAP13 0xF 0xBE SELFBALANCE SWAP13 MUL 0xB9 0xB2 0xF8 PUSH5 0x736F6C6343 STOP ADDMOD BYTE STOP CALLER "
		},
		"gasEstimates": {
			"creation": {
				"codeDepositCost": "194200",
				"executionCost": "236",
				"totalCost": "194436"
			},
			"external": {
				"add(uint256,uint256)": "infinite",
				"f1()": "165",
				"f2()": "210",
				"f3()": "143",
				"f4(uint256)": "489",
				"f5(uint256)": "infinite",
				"f6(uint256,uint256,uint256)": "infinite",
				"foo()": "187",
				"foo(uint256)": "424",
				"foo(uint256,uint256,uint256)": "infinite"
			}
		},
		"methodIdentifiers": {
			"add(uint256,uint256)": "771602f7",
			"f1()": "c27fc305",
			"f2()": "9942ec6f",
			"f3()": "aaf05f3d",
			"f4(uint256)": "d7531d91",
			"f5(uint256)": "cf35f823",
			"f6(uint256,uint256,uint256)": "a8bc8423",
			"foo()": "c2985578",
			"foo(uint256)": "2fbebd38",
			"foo(uint256,uint256,uint256)": "0b94e4f7"
		}
	},
	"abi": [
		{
			"inputs": [
				{
					"internalType": "uint256",
					"name": "lhs",
					"type": "uint256"
				},
				{
					"internalType": "uint256",
					"name": "rhs",
					"type": "uint256"
				}
			],
			"name": "add",
			"outputs": [
				{
					"internalType": "uint256",
					"name": "",
					"type": "uint256"
				}
			],
			"stateMutability": "pure",
			"type": "function"
		},
		{
			"inputs": [],
			"name": "f1",
			"outputs": [],
			"stateMutability": "nonpayable",
			"type": "function"
		},
		{
			"inputs": [],
			"name": "f2",
			"outputs": [],
			"stateMutability": "pure",
			"type": "function"
		},
		{
			"inputs": [],
			"name": "f3",
			"outputs": [],
			"stateMutability": "view",
			"type": "function"
		},
		{
			"inputs": [
				{
					"internalType": "uint256",
					"name": "a",
					"type": "uint256"
				}
			],
			"name": "f4",
			"outputs": [],
			"stateMutability": "pure",
			"type": "function"
		},
		{
			"inputs": [
				{
					"internalType": "uint256",
					"name": "a",
					"type": "uint256"
				}
			],
			"name": "f5",
			"outputs": [
				{
					"internalType": "uint256",
					"name": "",
					"type": "uint256"
				}
			],
			"stateMutability": "pure",
			"type": "function"
		},
		{
			"inputs": [
				{
					"internalType": "uint256",
					"name": "a",
					"type": "uint256"
				},
				{
					"internalType": "uint256",
					"name": "b",
					"type": "uint256"
				},
				{
					"internalType": "uint256",
					"name": "c",
					"type": "uint256"
				}
			],
			"name": "f6",
			"outputs": [
				{
					"internalType": "uint256",
					"name": "",
					"type": "uint256"
				},
				{
					"internalType": "uint256",
					"name": "",
					"type": "uint256"
				},
				{
					"internalType": "uint256",
					"name": "",
					"type": "uint256"
				}
			],
			"stateMutability": "pure",
			"type": "function"
		},
		{
			"inputs": [
				{
					"internalType": "uint256",
					"name": "a",
					"type": "uint256"
				},
				{
					"internalType": "uint256",
					"name": "d",
					"type": "uint256"
				},
				{
					"internalType": "uint256",
					"name": "c",
					"type": "uint256"
				}
			],
			"name": "foo",
			"outputs": [],
			"stateMutability": "nonpayable",
			"type": "function"
		},
		{
			"inputs": [
				{
					"internalType": "uint256",
					"name": "a",
					"type": "uint256"
				}
			],
			"name": "foo",
			"outputs": [],
			"stateMutability": "nonpayable",
			"type": "function"
		},
		{
			"inputs": [],
			"name": "foo",
			"outputs": [],
			"stateMutability": "nonpayable",
			"type": "function"
		}
	]
}